{
  "_format": "hh-sol-artifact-1",
  "contractName": "Campaign",
  "sourceName": "contracts/Campaign.sol",
  "abi": [
    {
      "inputs": [
        {
          "internalType": "string",
          "name": "campaignTitle",
          "type": "string"
        },
        {
          "internalType": "string",
          "name": "imgURI",
          "type": "string"
        },
        {
          "internalType": "string",
          "name": "storyURI",
          "type": "string"
        },
        {
          "internalType": "address",
          "name": "campaignOwner",
          "type": "address"
        }
      ],
      "stateMutability": "nonpayable",
      "type": "constructor"
    },
    {
      "anonymous": false,
      "inputs": [
        {
          "indexed": true,
          "internalType": "address",
          "name": "donar",
          "type": "address"
        },
        {
          "indexed": true,
          "internalType": "uint256",
          "name": "amount",
          "type": "uint256"
        },
        {
          "indexed": true,
          "internalType": "uint256",
          "name": "timestamp",
          "type": "uint256"
        }
      ],
      "name": "donated",
      "type": "event"
    },
    {
      "anonymous": false,
      "inputs": [
        {
          "indexed": false,
          "internalType": "string",
          "name": "firstName",
          "type": "string"
        },
        {
          "indexed": false,
          "internalType": "string",
          "name": "lastName",
          "type": "string"
        },
        {
          "indexed": false,
          "internalType": "uint256",
          "name": "age",
          "type": "uint256"
        },
        {
          "indexed": false,
          "internalType": "string",
          "name": "contactNumber",
          "type": "string"
        },
        {
          "indexed": false,
          "internalType": "string",
          "name": "photoUrl",
          "type": "string"
        },
        {
          "indexed": false,
          "internalType": "string",
          "name": "additionalInfoUrl",
          "type": "string"
        }
      ],
      "name": "missingPersonAdded",
      "type": "event"
    },
    {
      "inputs": [
        {
          "internalType": "string",
          "name": "firstName",
          "type": "string"
        },
        {
          "internalType": "string",
          "name": "lastName",
          "type": "string"
        },
        {
          "internalType": "uint256",
          "name": "age",
          "type": "uint256"
        },
        {
          "internalType": "string",
          "name": "contactNumber",
          "type": "string"
        },
        {
          "internalType": "string",
          "name": "photoUrl",
          "type": "string"
        },
        {
          "internalType": "string",
          "name": "additionalInfoUrl",
          "type": "string"
        }
      ],
      "name": "addMissingPerson",
      "outputs": [],
      "stateMutability": "nonpayable",
      "type": "function"
    },
    {
      "inputs": [],
      "name": "donate",
      "outputs": [],
      "stateMutability": "payable",
      "type": "function"
    },
    {
      "inputs": [],
      "name": "donationCount",
      "outputs": [
        {
          "internalType": "uint256",
          "name": "",
          "type": "uint256"
        }
      ],
      "stateMutability": "view",
      "type": "function"
    },
    {
      "inputs": [
        {
          "internalType": "uint256",
          "name": "",
          "type": "uint256"
        }
      ],
      "name": "donations",
      "outputs": [
        {
          "internalType": "address",
          "name": "donar",
          "type": "address"
        },
        {
          "internalType": "uint256",
          "name": "amount",
          "type": "uint256"
        },
        {
          "internalType": "uint256",
          "name": "timestamp",
          "type": "uint256"
        }
      ],
      "stateMutability": "view",
      "type": "function"
    },
    {
      "inputs": [],
      "name": "image",
      "outputs": [
        {
          "internalType": "string",
          "name": "",
          "type": "string"
        }
      ],
      "stateMutability": "view",
      "type": "function"
    },
    {
      "inputs": [],
      "name": "listDonations",
      "outputs": [
        {
          "components": [
            {
              "internalType": "address",
              "name": "donar",
              "type": "address"
            },
            {
              "internalType": "uint256",
              "name": "amount",
              "type": "uint256"
            },
            {
              "internalType": "uint256",
              "name": "timestamp",
              "type": "uint256"
            }
          ],
          "internalType": "struct Campaign.Donation[]",
          "name": "",
          "type": "tuple[]"
        }
      ],
      "stateMutability": "view",
      "type": "function"
    },
    {
      "inputs": [],
      "name": "listMissingPersons",
      "outputs": [
        {
          "components": [
            {
              "internalType": "uint256",
              "name": "personId",
              "type": "uint256"
            },
            {
              "internalType": "string",
              "name": "firstName",
              "type": "string"
            },
            {
              "internalType": "string",
              "name": "lastName",
              "type": "string"
            },
            {
              "internalType": "uint256",
              "name": "age",
              "type": "uint256"
            },
            {
              "internalType": "string",
              "name": "contactNumber",
              "type": "string"
            },
            {
              "internalType": "string",
              "name": "photoUrl",
              "type": "string"
            },
            {
              "internalType": "string",
              "name": "additionInfoUrl",
              "type": "string"
            }
          ],
          "internalType": "struct Campaign.Person[]",
          "name": "",
          "type": "tuple[]"
        }
      ],
      "stateMutability": "view",
      "type": "function"
    },
    {
      "inputs": [
        {
          "internalType": "uint256",
          "name": "",
          "type": "uint256"
        }
      ],
      "name": "missingPeople",
      "outputs": [
        {
          "internalType": "uint256",
          "name": "personId",
          "type": "uint256"
        },
        {
          "internalType": "string",
          "name": "firstName",
          "type": "string"
        },
        {
          "internalType": "string",
          "name": "lastName",
          "type": "string"
        },
        {
          "internalType": "uint256",
          "name": "age",
          "type": "uint256"
        },
        {
          "internalType": "string",
          "name": "contactNumber",
          "type": "string"
        },
        {
          "internalType": "string",
          "name": "photoUrl",
          "type": "string"
        },
        {
          "internalType": "string",
          "name": "additionInfoUrl",
          "type": "string"
        }
      ],
      "stateMutability": "view",
      "type": "function"
    },
    {
      "inputs": [],
      "name": "owner",
      "outputs": [
        {
          "internalType": "address payable",
          "name": "",
          "type": "address"
        }
      ],
      "stateMutability": "view",
      "type": "function"
    },
    {
      "inputs": [],
      "name": "peopleCount",
      "outputs": [
        {
          "internalType": "uint256",
          "name": "",
          "type": "uint256"
        }
      ],
      "stateMutability": "view",
      "type": "function"
    },
    {
      "inputs": [],
      "name": "receivedAmount",
      "outputs": [
        {
          "internalType": "uint256",
          "name": "",
          "type": "uint256"
        }
      ],
      "stateMutability": "view",
      "type": "function"
    },
    {
      "inputs": [],
      "name": "story",
      "outputs": [
        {
          "internalType": "string",
          "name": "",
          "type": "string"
        }
      ],
      "stateMutability": "view",
      "type": "function"
    },
    {
      "inputs": [],
      "name": "title",
      "outputs": [
        {
          "internalType": "string",
          "name": "",
          "type": "string"
        }
      ],
      "stateMutability": "view",
      "type": "function"
    }
  ],
  "bytecode": "0x60806040523480156200001157600080fd5b50604051620017b0380380620017b0833981016040819052620000349162000159565b60006200004285826200029b565b5060016200005184826200029b565b5060026200006083826200029b565b50600380546001600160a01b0319166001600160a01b03929092169190911790555050600060078190556008555062000367565b634e487b7160e01b600052604160045260246000fd5b600082601f830112620000bc57600080fd5b81516001600160401b0380821115620000d957620000d962000094565b604051601f8301601f19908116603f0116810190828211818310171562000104576200010462000094565b816040528381526020925086838588010111156200012157600080fd5b600091505b8382101562000145578582018301518183018401529082019062000126565b600093810190920192909252949350505050565b600080600080608085870312156200017057600080fd5b84516001600160401b03808211156200018857600080fd5b6200019688838901620000aa565b95506020870151915080821115620001ad57600080fd5b620001bb88838901620000aa565b94506040870151915080821115620001d257600080fd5b50620001e187828801620000aa565b606087015190935090506001600160a01b03811681146200020157600080fd5b939692955090935050565b600181811c908216806200022157607f821691505b6020821081036200024257634e487b7160e01b600052602260045260246000fd5b50919050565b601f8211156200029657600081815260208120601f850160051c81016020861015620002715750805b601f850160051c820191505b8181101562000292578281556001016200027d565b5050505b505050565b81516001600160401b03811115620002b757620002b762000094565b620002cf81620002c884546200020c565b8462000248565b602080601f831160018114620003075760008415620002ee5750858301515b600019600386901b1c1916600185901b17855562000292565b600085815260208120601f198616915b82811015620003385788860151825594840194600190910190840162000317565b5085821015620003575787850151600019600388901b60f8161c191681555b5050505050600190811b01905550565b61143980620003776000396000f3fe6080604052600436106100c25760003560e01c80639632e7201161007f578063bf82d7d011610059578063bf82d7d014610202578063ed88c68e14610224578063f3ccaac01461022c578063f8626af81461024157600080fd5b80639632e72014610197578063a3873250146101ad578063b68f7ec7146101cf57600080fd5b8063267c68e0146100c75780632abfab4d146100f057806346c922d1146101065780634a79d50c146101285780638cae23ec1461013d5780638da5cb5b1461015f575b600080fd5b3480156100d357600080fd5b506100dd60075481565b6040519081526020015b60405180910390f35b3480156100fc57600080fd5b506100dd60085481565b34801561011257600080fd5b5061011b610286565b6040516100e79190610e74565b34801561013457600080fd5b5061011b610314565b34801561014957600080fd5b5061015d610158366004610f31565b610321565b005b34801561016b57600080fd5b5060035461017f906001600160a01b031681565b6040516001600160a01b0390911681526020016100e7565b3480156101a357600080fd5b506100dd60045481565b3480156101b957600080fd5b506101c2610489565b6040516100e7919061100b565b3480156101db57600080fd5b506101ef6101ea36600461106d565b6105a7565b6040516100e79796959493929190611086565b34801561020e57600080fd5b5061021761089d565b6040516100e79190611101565b61015d610c8d565b34801561023857600080fd5b5061011b610de4565b34801561024d57600080fd5b5061026161025c36600461106d565b610df1565b604080516001600160a01b0390941684526020840192909252908201526060016100e7565b60028054610293906111ee565b80601f01602080910402602001604051908101604052809291908181526020018280546102bf906111ee565b801561030c5780601f106102e15761010080835404028352916020019161030c565b820191906000526020600020905b8154815290600101906020018083116102ef57829003601f168201915b505050505081565b60008054610293906111ee565b6007805490600061033183611238565b90915550506040805160e08101825260078054825260208201898152928201889052606082018790526080820186905260a0820185905260c0820184905260058054600181018255600091909152825191027f036b6384b5eca791c62761152d0c79bb0604c104a5fb6f4eb0703f3154bb3db081019182559251919283927f036b6384b5eca791c62761152d0c79bb0604c104a5fb6f4eb0703f3154bb3db1909101906103de90826112a0565b50604082015160028201906103f390826112a0565b50606082015160038201556080820151600482019061041290826112a0565b5060a0820151600582019061042790826112a0565b5060c0820151600682019061043c90826112a0565b5050507fb0207dd88fdfea351b0cf49ea443ee03fef471835b7ff107e595b15bc6a8d14e87878787878760405161047896959493929190611360565b60405180910390a150505050505050565b6060600060085467ffffffffffffffff8111156104a8576104a8610e8e565b60405190808252806020026020018201604052801561050657816020015b6104f3604051806060016040528060006001600160a01b0316815260200160008152602001600081525090565b8152602001906001900390816104c65790505b50905060005b6008548110156105a15760006006828154811061052b5761052b6113d4565b600091825260209182902060408051606081018252600390930290910180546001600160a01b03168352600181015493830193909352600283015490820152845191925090849084908110610582576105826113d4565b602002602001018190525050808061059990611238565b91505061050c565b50919050565b600581815481106105b757600080fd5b600091825260209091206007909102018054600182018054919350906105dc906111ee565b80601f0160208091040260200160405190810160405280929190818152602001828054610608906111ee565b80156106555780601f1061062a57610100808354040283529160200191610655565b820191906000526020600020905b81548152906001019060200180831161063857829003601f168201915b50505050509080600201805461066a906111ee565b80601f0160208091040260200160405190810160405280929190818152602001828054610696906111ee565b80156106e35780601f106106b8576101008083540402835291602001916106e3565b820191906000526020600020905b8154815290600101906020018083116106c657829003601f168201915b5050505050908060030154908060040180546106fe906111ee565b80601f016020809104026020016040519081016040528092919081815260200182805461072a906111ee565b80156107775780601f1061074c57610100808354040283529160200191610777565b820191906000526020600020905b81548152906001019060200180831161075a57829003601f168201915b50505050509080600501805461078c906111ee565b80601f01602080910402602001604051908101604052809291908181526020018280546107b8906111ee565b80156108055780601f106107da57610100808354040283529160200191610805565b820191906000526020600020905b8154815290600101906020018083116107e857829003601f168201915b50505050509080600601805461081a906111ee565b80601f0160208091040260200160405190810160405280929190818152602001828054610846906111ee565b80156108935780601f1061086857610100808354040283529160200191610893565b820191906000526020600020905b81548152906001019060200180831161087657829003601f168201915b5050505050905087565b6060600060075467ffffffffffffffff8111156108bc576108bc610e8e565b60405190808252806020026020018201604052801561092d57816020015b61091a6040518060e00160405280600081526020016060815260200160608152602001600081526020016060815260200160608152602001606081525090565b8152602001906001900390816108da5790505b50905060005b6007548110156105a157600060058281548110610952576109526113d4565b90600052602060002090600702019050806040518060e001604052908160008201548152602001600182018054610988906111ee565b80601f01602080910402602001604051908101604052809291908181526020018280546109b4906111ee565b8015610a015780601f106109d657610100808354040283529160200191610a01565b820191906000526020600020905b8154815290600101906020018083116109e457829003601f168201915b50505050508152602001600282018054610a1a906111ee565b80601f0160208091040260200160405190810160405280929190818152602001828054610a46906111ee565b8015610a935780601f10610a6857610100808354040283529160200191610a93565b820191906000526020600020905b815481529060010190602001808311610a7657829003601f168201915b5050505050815260200160038201548152602001600482018054610ab6906111ee565b80601f0160208091040260200160405190810160405280929190818152602001828054610ae2906111ee565b8015610b2f5780601f10610b0457610100808354040283529160200191610b2f565b820191906000526020600020905b815481529060010190602001808311610b1257829003601f168201915b50505050508152602001600582018054610b48906111ee565b80601f0160208091040260200160405190810160405280929190818152602001828054610b74906111ee565b8015610bc15780601f10610b9657610100808354040283529160200191610bc1565b820191906000526020600020905b815481529060010190602001808311610ba457829003601f168201915b50505050508152602001600682018054610bda906111ee565b80601f0160208091040260200160405190810160405280929190818152602001828054610c06906111ee565b8015610c535780601f10610c2857610100808354040283529160200191610c53565b820191906000526020600020905b815481529060010190602001808311610c3657829003601f168201915b505050505081525050838381518110610c6e57610c6e6113d4565b6020026020010181905250508080610c8590611238565b915050610933565b6003546040516001600160a01b03909116903480156108fc02916000818181858888f19350505050158015610cc6573d6000803e3d6000fd5b503460046000828254610cd991906113ea565b90915550506040805160608101825233815234602082019081524292820192835260068054600181018255600091825283517ff652222313e28459528d920b65115c16c04f3efc82aaedc97be59f3f377c0d3f600390920291820180546001600160a01b0319166001600160a01b0390921691909117905591517ff652222313e28459528d920b65115c16c04f3efc82aaedc97be59f3f377c0d4083015592517ff652222313e28459528d920b65115c16c04f3efc82aaedc97be59f3f377c0d4190910155600880549192610dad83611238565b90915550506040514290349033907fe6add99d06d9ad7fc456e746aa162eed6211c5002ef2dacdd67b8d2016822fba90600090a450565b60018054610293906111ee565b60068181548110610e0157600080fd5b60009182526020909120600390910201805460018201546002909201546001600160a01b03909116925083565b6000815180845260005b81811015610e5457602081850181015186830182015201610e38565b506000602082860101526020601f19601f83011685010191505092915050565b602081526000610e876020830184610e2e565b9392505050565b634e487b7160e01b600052604160045260246000fd5b600082601f830112610eb557600080fd5b813567ffffffffffffffff80821115610ed057610ed0610e8e565b604051601f8301601f19908116603f01168101908282118183101715610ef857610ef8610e8e565b81604052838152866020858801011115610f1157600080fd5b836020870160208301376000602085830101528094505050505092915050565b60008060008060008060c08789031215610f4a57600080fd5b863567ffffffffffffffff80821115610f6257600080fd5b610f6e8a838b01610ea4565b97506020890135915080821115610f8457600080fd5b610f908a838b01610ea4565b9650604089013595506060890135915080821115610fad57600080fd5b610fb98a838b01610ea4565b94506080890135915080821115610fcf57600080fd5b610fdb8a838b01610ea4565b935060a0890135915080821115610ff157600080fd5b50610ffe89828a01610ea4565b9150509295509295509295565b602080825282518282018190526000919060409081850190868401855b8281101561106057815180516001600160a01b0316855286810151878601528501518585015260609093019290850190600101611028565b5091979650505050505050565b60006020828403121561107f57600080fd5b5035919050565b87815260e06020820152600061109f60e0830189610e2e565b82810360408401526110b18189610e2e565b905086606084015282810360808401526110cb8187610e2e565b905082810360a08401526110df8186610e2e565b905082810360c08401526110f38185610e2e565b9a9950505050505050505050565b60006020808301818452808551808352604092508286019150828160051b87010184880160005b838110156111e057603f19898403018552815160e08151855288820151818a87015261115682870182610e2e565b915050878201518582038987015261116e8282610e2e565b9150506060808301518187015250608080830151868303828801526111938382610e2e565b9250505060a080830151868303828801526111ae8382610e2e565b9250505060c080830151925085820381870152506111cc8183610e2e565b968901969450505090860190600101611128565b509098975050505050505050565b600181811c9082168061120257607f821691505b6020821081036105a157634e487b7160e01b600052602260045260246000fd5b634e487b7160e01b600052601160045260246000fd5b60006001820161124a5761124a611222565b5060010190565b601f82111561129b57600081815260208120601f850160051c810160208610156112785750805b601f850160051c820191505b8181101561129757828155600101611284565b5050505b505050565b815167ffffffffffffffff8111156112ba576112ba610e8e565b6112ce816112c884546111ee565b84611251565b602080601f83116001811461130357600084156112eb5750858301515b600019600386901b1c1916600185901b178555611297565b600085815260208120601f198616915b8281101561133257888601518255948401946001909101908401611313565b50858210156113505787850151600019600388901b60f8161c191681555b5050505050600190811b01905550565b60c08152600061137360c0830189610e2e565b82810360208401526113858189610e2e565b9050866040840152828103606084015261139f8187610e2e565b905082810360808401526113b38186610e2e565b905082810360a08401526113c78185610e2e565b9998505050505050505050565b634e487b7160e01b600052603260045260246000fd5b808201808211156113fd576113fd611222565b9291505056fea26469706673582212209e373c1042e8d0764d48898d00b49f2d0cf077e01327c2a814286c5016013f5764736f6c63430008120033",
  "linkReferences": {},
  "deployedLinkReferences": {}
}